:020000040800F2
:1000000000000120C51600088114000887140008AC
:100010008D140008931400089914000800000000D3
:1000200000000000000000000000000001F40008D3
:100030009F1400080000000051F60008B9F60008FF
:1000400015170008151700081517000815170008E0
:10005000151700081517000815170008AD1400083B
:1000600015170008151700081517000815170008C0
:1000700015170008151700081517000815170008B0
:10008000BD1400081517000815170008000000002F
:10009000000000000000000000000000151700082C
:1000A0001517000815170008D114000815170008C7
:1000B0001517000815170008151700081517000870
:1000C0001517000815170008151700081517000860
:1000D0001517000815170008151700080000000084
:1000E0001517000815170008151700080000000074
:1000F00000000000000000000000000015170008CC
:100100000000000015170008151700081517000853
:1001100000000000000000000000000000000000DF
:10012000E514000815170008151700081517000832
:10013000151700080000000000000000000000008B
:10014000000000000000000000000000F91400089A
:1001500015170008151700081517000815170008CF
:100160001517000815170008000000000000000027
:10017000000000000000000000000000000000007F
:10018000000000001517000800000000000000003B
:040190001517000837
:1001A00010B5054C237833B9044B13B10448AFF3B1
:1001B00000800123237010BDF0010020000000002A
:1001C000A414010808B5034B1BB103490348AFF35E
:1001D000008008BD00000000F4010020A414010804
:1001E00001F0FF01102A2BDB10F0070F08D010F8E8
:1001F000013B013A8B422DD010F0070F42B3F6D1EC
:10020000F0B441EA012141EA014122F007047FF004
:1002100000070023F0E80256083C85EA010586EA5B
:10022000010685FA47F5A3FA87F586FA47F6A5FA97
:1002300087F68EB9EED1F0BC01F0FF0102F00702A3
:1002400032B110F8013B013A83EA010313B1F8D14E
:100250000020704701387047002D06BF354603382F
:10026000073815F0010F07D1013015F4807F02BF68
:10027000013015F4C03F0130F0BC0138704700BFB9
:1002800053B94AB9002908BF00281CBF4FF0FF31FD
:100290004FF0FF3000F06EB9ADF1080C6DE904CEFF
:1002A00000F006F8DDF804E0DDE9022304B0704751
:1002B0002DE9F047089D04468C46002B40F08380D2
:1002C0008A42174647D9B2FA82F242B1C2F12000FF
:1002D00024FA00F09140974040EA010C94404FEA24
:1002E0001748230CBCFBF8F61FFA87FE08FB16C163
:1002F00043EA014306FB0EF1994209D9FB1806F1C6
:10030000FF3080F01981994240F21681023E3B4451
:100310005B1AA4B2B3FBF8F008FB103344EA0344C1
:1003200000FB0EFEA64509D93C1900F1FF3380F011
:100330000581A64540F2028102383C4440EA06406D
:10034000A4EB0E0400261DB1D4400023C5E90043F0
:100350003146BDE8F08702B9FFDEB2FA82F2002A28
:1003600050D1CB1B4FEA174E1FFA87F80126B3FB7B
:10037000FEFC210C0EFB1C3341EA034108FB0CF38D
:100380008B4207D979180CF1FF3002D28B4200F270
:10039000E9808446C91AA3B2B1FBFEF00EFB10112E
:1003A00043EA014408FB00F8A04507D93C1900F1D5
:1003B000FF3302D2A04500F2D9801846A4EB08040E
:1003C00040EA0C40BFE78B4209D9002D00F0B18014
:1003D0000026C5E9000130463146BDE8F087B3FA92
:1003E00083F6002E4AD18B4202D3824200F2B880BB
:1003F000841A61EB030101208C46002DA8D0C5E9C9
:10040000004CA5E7C2F1200320FA03F6974001FA59
:1004100002F04FEA174ED9403043030CB1FBFEF611
:100420001FFA87F80EFB161143EA014306FB08F199
:10043000994204FA02F409D9FB1806F1FF3C80F056
:100440008D80994240F28A80023E3B445B1A81B221
:10045000B3FBFEF00EFB103341EA034100FB08F34F
:100460008B4207D9791800F1FF3C73D28B4271D9C6
:1004700002383944CB1A40EA064678E7C6F1200C28
:1004800003FA06F422FA0CF31C4320FA0CF701FAE3
:1004900006F34FEA144E21FA0CF11F433B0CB1FB5B
:1004A000FEF91FFA84F80EFB191143EA014109FB1A
:1004B00008FA8A4502FA06F200FA06F308D961182A
:1004C00009F1FF3048D28A4546D9A9F102092144F1
:1004D000A1EB0A01BFB2B1FBFEF00EFB101147EA1F
:1004E000014700FB08F8B84507D9E71900F1FF31CB
:1004F0002ED2B8452CD90238274440EA0940A7EB50
:100500000807A0FB02894F45C64649461AD317D0B3
:100510005DB1B3EB0E0267EB010707FA0CFCF2408A
:100520004CEA0202F740C5E9002700263146BDE843
:10053000F0872E4628460BE70646E9E61846FDE614
:100540004345E5D2B8EB020E69EB04010138DFE761
:100550000846D2E760468DE78146B9E7664675E70B
:1005600030464AE7ACF1020C394413E702383C4408
:1005700024E700BF704700BF90B597B016AF01F0F9
:10058000CBF800F09DF800F0C1FA00F089FA00F015
:1005900001F900F05FF900F08BF900F0BFF900F00D
:1005A00031FA0AF08FFD01224FF48041314802F008
:1005B000FDFC0AF029FA09F0EFF92F4B1B7C002B08
:1005C00004D002222D492E4801F050F92D4C6846E6
:1005D00004F11003442219460FF054FF94E80F0071
:1005E00008F0F4FB284806F048F8284A6B46114604
:1005F000582218460FF046FF0123254A10212548AE
:1006000008F02EFE012009F07BF8012008F0BFFF62
:1006100000220121012009F091F9202008F0CCFFEF
:100620001D4BD3E90023012008F048FF09F01EF814
:1006300008F0EEFF08F0F4FE0CF024FD174A00214C
:1006400017480CF089FD0346164A1360164A00212C
:1006500016480CF081FD0346154A1360154A002127
:1006600015480CF079FD0346144A13600CF03EFD6A
:10067000FEE700BF0008024054520020984F0020BF
:1006800070500020E84F0020A04F0020B8510020FB
:100690000004024000000240000000204015010854
:1006A000F10C0008304F002064150108710F00089C
:1006B000E04F002088150108D10F000840500020AD
:1006C00080B594B000AF07F1200330220021184616
:1006D0000FF0E6FE07F10C0300221A605A609A60E0
:1006E000DA601A610023BB60284B1B6C274A43F079
:1006F00080531364254B1B6C03F08053BB60BB68B5
:1007000000237B60224B1B6823F44043204A43F4C0
:10071000004313601E4B1B6803F440437B607B68FF
:1007200001233B624FF480337B620223BB634FF4AF
:100730008003FB6308233B64A8237B640423BB641E
:100740000723FB6407F12003184604F07BFD0346F2
:10075000002B01D000F062FC0F23FB6002233B6101
:1007600000237B614FF48053BB610023FB6107F1E1
:100770000C030221184604F0D5FF0346002B01D0DC
:1007800000F04CFC00BF5037BD4680BD0038024031
:100790000070004080B584B000AF3B4600221A6074
:1007A0005A609A60DA60284B284A1A60264B4FF448
:1007B00080325A60244B00229A60234B01221A6136
:1007C000214B01221A76204B002283F820201E4B59
:1007D0000022DA621C4B1E4A9A621B4B0022DA602E
:1007E000194B0222DA61184B012283F83020164B94
:1007F00001225A61144800F0F5FF0346002B01D096
:1008000000F00CFC01233B6001237B600723BB60ED
:100810003B4619460C4801F011F90346002B01D064
:1008200000F0FCFB02233B6002237B603B46194641
:10083000054801F003F90346002B01D000F0EEFB60
:1008400000BF1037BD4680BD705000200020014021
:100850000100000F80B500AF124B134A1A60114B14
:10086000124A5A600F4B00229A600E4B0022DA6047
:100870000C4B4FF480421A610A4B00225A61094B1B
:1008800000229A61074B0022DA61064B00221A62AD
:10089000044802F0BDFB0346002B01D000F0BEFB74
:1008A00000BF80BDE84F002000540040801A0600C1
:1008B00080B500AF174B184A1A60164B4FF482727E
:1008C0005A60144B00229A60124B0022DA60114BDE
:1008D00000221A610F4B00225A610E4B4FF4007236
:1008E0009A610C4B0822DA610A4B00221A62094B0A
:1008F00000225A62074B00229A62064B0A22DA62F1
:10090000044805F03BF90346002B01D000F086FBBC
:1009100000BF80BDB85100200030014080B58EB0CE
:1009200000AF07F1280300221A605A609A60DA606B
:1009300007F1200300221A605A603B1D00221A6052
:100940005A609A60DA601A615A619A612C4B4FF0D2
:1009500080421A602A4B00225A60294B00229A607A
:10096000274B6822DA60264B00221A61244B0022B2
:100970009A61234805F056FE0346002B01D000F093
:100980004DFB4FF48053BB6207F1280319461C4806
:1009900006F0C4F90346002B01D000F03FFB1848D5
:1009A00005F0B3FE0346002B01D000F037FB002317
:1009B0003B6200237B6207F120031946104806F0D2
:1009C000FBFD0346002B01D000F028FB60237B6079
:1009D0000023BB600023FB6000237B613B1D0022E2
:1009E0001946074806F0D4F80346002B01D000F062
:1009F00015FB034800F0B4FC00BF3837BD4680BD8E
:100A00001052002080B586B000AF07F10803002225
:100A10001A605A609A60DA603B4600221A605A6097
:100A20001D4B1E4A1A601C4B00225A601A4B0022B2
:100A30009A60194B4FF6FF72DA60174B00221A6169
:100A4000154B00229A61144805F0ECFD0346002B7B
:100A500001D000F0E3FA4FF48053BB6007F10803C4
:100A600019460D4806F05AF90346002B01D000F054
:100A7000D5FA00233B6000237B603B4619460648BD
:100A800006F09AFD0346002B01D000F0C7FA00BF24
:100A90001837BD4680BD00BFA04F002000080040B1
:100AA00080B582B000AF00237B60174B1B6B164AEA
:100AB00043F480031363144B1B6B03F480037B60CC
:100AC0007B6800233B60104B1B6B0F4A43F4001301
:100AD00013630D4B1B6B03F400133B603B68002258
:100AE0000521102001F019FB102001F032FB00223B
:100AF0000521382001F011FB382001F02AFB00BF4E
:100B00000837BD4680BD00BF0038024080B58AB0BE
:100B100000AF07F1140300221A605A609A60DA608D
:100B20001A6100233B61514B1B6B504A43F0040395
:100B300013634E4B1B6B03F004033B613B690023C3
:100B4000FB604A4B1B6B494A43F080031363474BDE
:100B50001B6B03F08003FB60FB680023BB60434B0F
:100B60001B6B424A43F001031363404B1B6B03F0C2
:100B70000103BB60BB6800237B603C4B1B6B3B4AA3
:100B800043F002031363394B1B6B03F002037B60DA
:100B90007B6800224FF4C041354802F007FA00227A
:100BA0001021344802F002FA00220121324802F0FA
:100BB000FDF94FF4C0437B610123BB610023FB615E
:100BC00000233B6207F114031946294802F052F84A
:100BD00010237B610123BB610023FB6100233B6287
:100BE00007F114031946234802F044F801237B61FE
:100BF0000123BB610023FB6100233B6207F1140367
:100C000019461D4802F036F802237B611B4BBB617D
:100C10000123FB6107F114031946174802F02AF873
:100C200038237B610023BB610023FB6107F11403C0
:100C30001946114802F01EF84FF480737B610323BC
:100C4000BB610023FB6107F1140319460A4802F057
:100C500011F800220521072001F05FFA072001F0BA
:100C600078FA00BF2837BD4680BD00BF003802407B
:100C70000008024000000240000402400000211071
:100C800080B582B000AF0346FB80FB88022B0DD1FC
:100C9000084B1B680133074A136008F0E7FB034663
:100CA000002B03D02021044808F0E8FB00BF0837E0
:100CB000BD4680BDB05100204450002080B483B0B8
:100CC00000AF7860074B1B889AB2074B1A80054B20
:100CD0005B889AB2054B1A8000BF0C37BD465DF8A1
:100CE000047B7047984F00209C4F002050520020FA
:100CF00080B584B002AF78600EF048FF954B9B78CA
:100D0000002B35D0944BB3F811309BB2002B05D19A
:100D1000924B1B889AB2904BA3F811208E4BB3F8DC
:100D200013309BB2012B05D18C4B1B889AB28A4B96
:100D3000A3F81320884BB3F813309AB2874B1B8863
:100D40009BB29A4205D2854B1B889AB2824BA3F87C
:100D50001320814BB3F811309AB2804B1B889BB2A1
:100D60009A4205D97D4B1B889AB27B4BA3F8112080
:100D70007A4B1B889BB21846774BB3F811309BB265
:100D80001946754BB3F813309BB21A4609F06DFD46
:100D900003469AB2714B1A80704B1B889BB218465F
:100DA0006D4BB3F811309BB219466B4BB3F813304F
:100DB0009BB21A4640F6FF730093002309F032FD00
:100DC00003469AB2664B1A80654B1B8840F6FF7249
:100DD000002118460AF054F903461A46604B1A805F
:100DE0005C4B9B78002B35D05B4BB3F815309BB236
:100DF000002B05D15B4B1B889AB2574BA3F81520EB
:100E0000554BB3F817309BB2012B05D1554B1B88BE
:100E10009AB2514BA3F81720534B5B889AB24E4BB2
:100E2000B3F817309BB29A4205D94E4B1B889AB241
:100E3000494BA3F817204C4B5B889AB2464BB3F84A
:100E400015309BB29A4205D2464B1B889AB2424B50
:100E5000A3F81520434B1B889BB218463E4BB3F8B2
:100E600015309BB219463C4BB3F817309BB21A466B
:100E700009F0FBFC03469AB23A4B1A80394B1B88A7
:100E80009BB21846344BB3F815309BB21946324B1F
:100E9000B3F817309BB21A4640F6FF730093002355
:100EA00009F0C0FC03469AB22D4B5A802C4809F039
:100EB000E7FE284B1B78002B02D0012B1AD044E010
:100EC000254BDB7F002B12D0284B1B68C72B07DC80
:100ED0000AF088F9254B1B680133244A136035E07A
:100EE000224B00221A601C4B0022DA772EE00AF017
:100EF00007F92BE0174B5B78022B0CD0022B23DC7D
:100F0000002B02D0012B03D01EE00AF025F91CE0D3
:100F10000AF068F919E0104BDB7F002B12D0134B5D
:100F20001B68C72B07DC0AF05DF9104B1B68013307
:100F30000E4A136008E00D4B00221A60064B002297
:100F4000DA7701E00AF0C8FA00BF00BF01200CF018
:100F5000A9F9D3E6E44F0020545200209C4F002012
:100F60006C50002050520020984F002088520020E2
:100F700080B582B000AF7860114B1B7C83F0010319
:100F8000DBB2002B17D0012007F048FF07F0F6FE78
:100F900003461A460B4B1A80022007F03FFF07F06A
:100FA000EDFE03461A46084B1A80084B1B78002BAF
:100FB00001D007F0F5FE01200CF074F9DCE700BF6A
:100FC000545200209C4F002050520020944F00208B
:100FD00080B582B000AF7860064BDB7A002B04D07E
:100FE000044BDB68184609F05DFA01200CF05AF951
:100FF000F2E700BF5452002080B582B000AF7860A5
:101000007B681B68044A934201D100F0A7FB00BF34
:101010000837BD4680BD00BF0048014080B400AF26
:1010200072B600BFFEE7000080B582B000AF0023BB
:101030007B60124B5B6C114A43F4804353640F4B4B
:101040005B6C03F480437B607B6800233B600B4B4D
:101050001B6C0A4A43F080531364084B1B6C03F06B
:1010600080533B603B6800220F216FF0010001F0CC
:1010700054F800BF0837BD4680BD00BF00380240AD
:1010800080B58AB000AF786007F1140300221A60BF
:101090005A609A60DA601A617B681B682F4A934233
:1010A00057D100233B612E4B5B6C2D4A43F4807378
:1010B00053642B4B5B6C03F480733B613B690023EF
:1010C000FB60274B1B6B264A43F001031363244B41
:1010D0001B6B03F00103FB60FB6806237B610323AA
:1010E000BB610023FB6107F1140319461D4801F0A1
:1010F000C1FD1D4B1D4A1A601B4B00225A601A4B42
:1011000000229A60184B0022DA60174B4FF480627D
:101110001A61154B4FF400625A61134B4FF40052A1
:101120009A61114B4FF48072DA610F4B00221A6200
:101130000D4B00225A620C4801F01EF80346002BAA
:1011400001D0FFF76BFF7B68074A9A63064A7B680A
:10115000936300BF2837BD4680BD00BF002001401B
:101160000038024000000240C450002010640240D9
:1011700080B58AB000AF786007F1140300221A60CE
:101180005A609A60DA601A617B681B68194A934258
:101190002BD100233B61184B1B6B174A43F0020312
:1011A0001363154B1B6B03F002033B613B69C023C8
:1011B0007B611223BB610123FB6103233B62042398
:1011C0007B6207F1140319460C4801F053FD00231C
:1011D000FB60094B1B6C084A43F400131364064B75
:1011E0001B6C03F40013FB60FB6800BF2837BD468F
:1011F00080BD00BF0054004000380240000402409F
:1012000080B58AB000AF786007F1140300221A603D
:101210005A609A60DA601A617B681B68194A9342C7
:101220002BD100233B61184B5B6C174A43F480536E
:101230005364154B5B6C03F480533B613B690023A3
:10124000FB60114B1B6B104A43F0010313630E4B01
:101250001B6B03F00103FB60FB68E0237B6102234F
:10126000BB610023FB6103233B6205237B6207F123
:1012700014031946054801F0FDFC00BF2837BD46A0
:1012800080BD00BF00300140003802400000024035
:1012900080B584B000AF78607B681B68B3F1804F85
:1012A0003FD10023FB602A4B1B6C294A43F001030A
:1012B0001364274B1B6C03F00103FB60FB68254B99
:1012C000254A1A60234B4FF0C0625A60214B4022DE
:1012D0009A60204B0022DA601E4B4FF480621A6144
:1012E0001C4B4FF480525A611A4B4FF480429A6162
:1012F000184B4FF48072DA61164B00221A62154BBC
:1013000000225A62134800F037FF0346002B01D039
:10131000FFF784FE7B680F4A5A620E4A7B6893632C
:1013200012E07B681B680D4A93420DD10023BB601D
:10133000074B1B6C064A43F004031364044B1B6CFD
:1013400003F00403BB60BB6800BF1037BD4680BD1F
:1013500000380240344F00208860024000080040FE
:1013600080B588B000AF786007F10C0300221A60E6
:101370005A609A60DA601A617B681B68B3F1804F2B
:101380001DD10023BB60104B1B6B0F4A43F00103C0
:1013900013630D4B1B6B03F00103BB60BB680123A0
:1013A000FB6002233B6100237B610023BB610123BF
:1013B000FB6107F10C031946044801F05BFC00BF18
:1013C0002037BD4680BD00BF00380240000002400B
:1013D00080B58CB000AF78600023FB620023BB6255
:1013E000002279681A2000F098FE1A2000F0B1FE61
:1013F0000023FB601E4B5B6C1D4A43F48023536447
:101400001B4B5B6C03F48023FB60FB6807F110024D
:1014100007F114031146184604F07EFB04F068FB44
:10142000F862FB6A134AA2FB03239B0C013BBB62DD
:10143000114B124A1A60104B40F2E732DA600E4A42
:10144000BB6A53600C4B00221A610B4B00229A605E
:10145000094805F0E7F80346002B04D1064805F0DB
:1014600030F9034600E0012318463037BD4680BD01
:101470000038024083DE1B439052002000480140A8
:1014800080B400AFFEE780B400AFFEE780B400AFE9
:10149000FEE780B400AFFEE780B400AFFEE780B4A3
:1014A00000AF00BFBD465DF8047B704780B500AF5C
:1014B000022001F095FD00BF80BD000080B500AFA7
:1014C000024800F05FFF00BF80BD00BF344F002026
:1014D00080B500AF024805F053FA00BF80BD00BFE1
:1014E0009052002080B500AF024800F04BFF00BFD3
:1014F00080BD00BFC450002080B500AF024802F09C
:1015000086FE00BF80BD00BF5858002080B400AFE9
:1015100001231846BD465DF8047B704780B582B054
:1015200000AF786039600EF073FF034616221A6030
:101530004FF0FF3318460837BD4680BD80B582B0F6
:1015400000AF78604FF0FF317868FFF7E7FFFEE704
:1015500080B586B000AFF860B9607A6000237B6127
:101560000AE0AFF300800146BB685A1CBA60CAB2F9
:101570001A707B6901337B617A697B689A42F0DB80
:101580007B6818461837BD4680BD80B586B000AF71
:10159000F860B9607A6000237B6109E0BB685A1C7F
:1015A000BA601B781846AFF300807B6901337B611A
:1015B0007A697B689A42F1DB7B6818461837BD462A
:1015C00080BD80B483B000AF78604FF0FF33184621
:1015D0000C37BD465DF8047B704780B483B000AF24
:1015E000786039603B684FF400525A600023184617
:1015F0000C37BD465DF8047B704780B483B000AF04
:101600007860012318460C37BD465DF8047B7047AF
:1016100080B485B000AFF860B9607A6000231846E6
:101620001437BD465DF8047B7047000080B586B076
:1016300000AF7860144A154BD31A7B617B693B611C
:10164000134B1B68002B02D1114B124A1A60104B2E
:101650001A687B6813443A699A4207D20EF0D8FEA2
:1016600003460C221A604FF0FF3309E0084B1B6859
:10167000FB60074B1A687B681344054A1360FB68DC
:1016800018461837BD4680BD000001200004000048
:101690000C020020705C002080B400AF084BD3F82F
:1016A0008830074A43F47003C2F88830044B4FF087
:1016B00000629A6000BFBD465DF8047B704700BFC2
:1016C00000ED00E0DFF834D0002103E00C4B5B5864
:1016D000435004310B480C4B42189A42F6D30B4A44
:1016E00002E0002342F8043B094B9A42F9D3FFF78A
:1016F000D3FF0EF093FEFEF73FFF7047000001207E
:101700003817010800000020F0010020F00100203F
:10171000705C0020FEE7000080B500AF0E4B1B6838
:101720000D4A43F4007313600B4B1B680A4A43F4E1
:1017300080631360084B1B68074A43F4807313608F
:10174000032000F0DFFC0020FFF742FEFFF76CFCF7
:101750000023184680BD00BF003C024080B400AFAB
:10176000064B1B781A46064B1B681344044A136049
:1017700000BFBD465DF8047B704700BF100000202D
:10178000D052002080B400AF034B1B681846BD4602
:101790005DF8047B704700BFD052002080B584B054
:1017A00000AF7860FFF7EEFFB8607B68FB60FB6816
:1017B000B3F1FF3F05D00A4B1B781A46FB68134470
:1017C000FB6000BFFFF7DEFF0246BB68D31AFA6872
:1017D0009A42F7D800BF00BF1037BD4680BD00BF9A
:1017E0001000002080B584B000AF78600023FB7348
:1017F0007B68002B01D1012333E07B681B6C002B3D
:1018000009D17868FFF73CFC7B6800225A647B684A
:10181000002283F83C207B681B6C03F01003002B34
:1018200018D17B681B6C23F4885323F0020343F028
:1018300002027B681A64786800F022FA7B68002252
:101840005A647B681B6C23F0030343F001027B683E
:101850001A6401E00123FB737B68002283F83C20BB
:10186000FB7B18461037BD4680BD000080B586B0B2
:1018700000AFF860B9607A6000233B61FB6893F8C1
:101880003C30012B01D10223B1E0FB68012283F837
:101890003C20FB681B689B6803F00103012B18D0F8
:1018A000FB681B689A68FB681B6842F001029A603B
:1018B000514B1B68514AA2FB03239A0C13465B0051
:1018C00013443B6102E03B69013B3B613B69002BF8
:1018D000F9D1FB681B689B6803F00103012B40F002
:1018E0008580FB681B6C23F4E06323F0010343F461
:1018F0008072FB681A64FB681B685B6803F4806392
:10190000002B07D0FB681B6C23F4405343F4805238
:10191000FB681A64FB681B6C03F48053B3F5805FAB
:1019200006D1FB685B6C23F00602FB685A6402E098
:10193000FB6800225A64FB68002283F83C20304B8D
:101940007B61FB689B6B2F4ADA63FB689B6B2E4ABB
:101950001A64FB689B6B2D4ADA64FB681B686FF0A6
:1019600022021A60FB681B685A68FB681B6842F019
:1019700080625A60FB681B689A68FB681B6842F4C7
:1019800080729A60FB68986BFB681B684C33194641
:10199000BA687B6800F09EFC7B695B6803F01F03FC
:1019A000002B0FD1FB681B689B6803F04053002B92
:1019B0001CD1FB681B689A68FB681B6842F0804278
:1019C0009A6013E0FB681B68114A93420ED1FB68D2
:1019D0001B689B6803F04053002B07D1FB681B6812
:1019E0009A68FB681B6842F080429A6000231846A0
:1019F0001837BD4680BD00BF0800002083DE1B43B2
:101A000000230140791E0008331F00084F1F000803
:101A10000020014080B483B000AF786000BF0C3775
:101A2000BD465DF8047B704780B483B000AF78603A
:101A300000BF0C37BD465DF8047B704780B485B0AD
:101A400000AF786039600023BB607B6893F83C305E
:101A5000012B01D1022305E17B68012283F83C20A0
:101A60003B681B68092B25D97B681B68D9683B68D4
:101A70001B689BB21A4613465B0013441E3B0722A9
:101A800002FA03F3DA437B681B680A40DA607B687A
:101A90001B68D9683B689A683B681B689BB218460C
:101AA00003465B0003441E3B9A407B681B680A4365
:101AB000DA6022E07B681B6819693B681B689BB28F
:101AC0001A4613465B001344072202FA03F3DA4373
:101AD0007B681B680A401A617B681B6819693B6850
:101AE0009A683B681B689BB2184603465B00034438
:101AF0009A407B681B680A431A613B685B68062B47
:101B000024D87B681B68596B3B685A6813469B0056
:101B10001344053B1F2202FA03F3DA437B681B6878
:101B20000A405A637B681B68596B3B681B689BB211
:101B300018463B685A6813469B001344053B00FA5D
:101B400003F27B681B680A435A634CE03B685B689E
:101B50000C2B24D87B681B68196B3B685A681346AA
:101B60009B001344233B1F2202FA03F3DA437B68F2
:101B70001B680A401A637B681B68196B3B681B680B
:101B80009BB218463B685A6813469B001344233B9C
:101B900000FA03F27B681B680A431A6323E07B6840
:101BA0001B68D96A3B685A6813469B001344413B43
:101BB0001F2202FA03F3DA437B681B680A40DA62E9
:101BC0007B681B68D96A3B681B689BB218463B68F8
:101BD0005A6813469B001344413B00FA03F27B68AA
:101BE0001B680A43DA62224BFB607B681B68214A50
:101BF000934209D13B681B68122B05D1FB685B68D7
:101C000043F48002FB685A607B681B68194A934260
:101C100023D13B681B68102B03D03B681B68112B3A
:101C20001BD1FB685B6843F40002FB685A603B68A9
:101C30001B68102B11D1104B1B68104AA2FB032309
:101C40009A0C13469B0013445B00BB6002E0BB6828
:101C5000013BBB60BB68002BF9D17B68002283F895
:101C60003C20002318461437BD465DF8047B7047BE
:101C700000230140002001400800002083DE1B43B8
:101C800080B485B000AF7860794BFB60FB685B681F
:101C900023F44032FB685A60FB685A687B685B68D3
:101CA0001A43FB685A607B681B685A687B681B682C
:101CB00022F480725A607B681B6859687B681B69D4
:101CC0001A027B681B680A435A607B681B685A6863
:101CD0007B681B6822F040725A607B681B685968F9
:101CE0007B689A687B681B680A435A607B681B683C
:101CF0009A687B681B6822F400629A607B681B68A4
:101D000099687B68DA687B681B680A439A607B681D
:101D10009B6A584A934222D07B681B689A687B680A
:101D20001B6822F070629A607B681B6899687B6808
:101D30009A6A7B681B680A439A607B681B689A688A
:101D40007B681B6822F040529A607B681B68996828
:101D50007B68DA6A7B681B680A439A600FE07B68DD
:101D60001B689A687B681B6822F070629A607B68C7
:101D70001B689A687B681B6822F040529A607B68F7
:101D80001B689A687B681B6822F002029A607B6875
:101D90001B6899687B681B7E5A007B681B680A4336
:101DA0009A607B6893F82030002B1BD07B681B68FF
:101DB0005A687B681B6842F400625A607B681B6843
:101DC0005A687B681B6822F460425A607B681B6813
:101DD00059687B685B6A013B5A037B681B680A434E
:101DE0005A6007E07B681B685A687B681B6822F4AE
:101DF00000625A607B681B68DA6A7B681B6822F4A1
:101E00007002DA627B681B68D96A7B68DB69013B18
:101E10001A057B681B680A43DA627B681B689A684C
:101E20007B681B6822F400729A607B681B68996863
:101E30007B6893F830305A027B681B680A439A60CB
:101E40007B681B689A687B681B6822F480629A60D2
:101E50007B681B6899687B685B699A027B681B6872
:101E60000A439A6000BF1437BD465DF8047B704793
:101E7000002301400100000F80B584B000AF7860FE
:101E80007B689B6BFB60FB681B6C03F05003002BB3
:101E90003CD1FB681B6C43F40072FB681A64FB685E
:101EA0001B689B6803F04053002B2BD1FB681B7E03
:101EB000002B27D1FB681B68DB6A03F47003002B3F
:101EC00006D0FB681B689B6803F48063002B19D164
:101ED000FB681B685A68FB681B6822F020025A6086
:101EE000FB681B6C23F48072FB681A64FB681B6C34
:101EF00003F48053002B05D1FB681B6C43F00102F7
:101F0000FB681A64F868FEF7D9FE0EE0FB681B6CEC
:101F100003F01003002B03D0F868FFF785FD04E001
:101F2000FB689B6BDB6C7868984700BF1037BD4639
:101F300080BD80B584B000AF78607B689B6BFB6030
:101F4000F868FFF767FD00BF1037BD4680BD80B55C
:101F500084B000AF78607B689B6BFB60FB684022BD
:101F60001A64FB685B6C43F00402FB685A64F8680F
:101F7000FFF75AFD00BF1037BD4680BD80B485B065
:101F800000AF78607B6803F00703FB600C4BDB68F5
:101F9000BB60BA684FF6FF031340BB60FB681A02D0
:101FA000BB68134343F0BF6343F40033BB60044A90
:101FB000BB68D36000BF1437BD465DF8047B704733
:101FC00000ED00E080B400AF044BDB681B0A03F0B7
:101FD00007031846BD465DF8047B704700ED00E03E
:101FE00080B483B000AF0346FB7197F90730002B34
:101FF0000BDBFB7903F01F02074997F907305B09F8
:10200000012000FA02F241F8232000BF0C37BD4640
:102010005DF8047B704700BF00E100E080B483B04E
:1020200000AF03463960FB7197F90730002B0ADBDC
:102030003B68DAB20C4997F907301201D2B20B446F
:1020400083F800230AE03B68DAB20849FB7903F021
:102050000F03043B1201D2B20B441A7600BF0C37B7
:10206000BD465DF8047B704700E100E000ED00E054
:1020700080B489B000AFF860B9607A60FB6803F0A3
:102080000703FB61FB69C3F10703042B28BF04238B
:10209000BB61FB690433062B02D9FB69033B00E0FB
:1020A00000237B614FF0FF32BB6902FA03F3DA438E
:1020B000BB681A407B699A404FF0FF317B6901FA97
:1020C00003F3D9437B680B40134318462437BD46BE
:1020D0005DF8047B7047000080B400AFBFF34F8F02
:1020E00000BF064BDB6803F4E0620449044B134372
:1020F000CB60BFF34F8F00BF00BFFDE700ED00E0F6
:102100000400FA0580B582B000AF78607868FFF708
:1021100035FF00BF0837BD4680BD80B586B000AF33
:102120000346B9607A60FB7300237B61FFF74AFFC7
:1021300078617A68B9687869FFF79AFF024697F97B
:102140000F3011461846FFF769FF00BF1837BD462C
:1021500080BD80B582B000AF0346FB7197F90730B0
:102160001846FFF73DFF00BF0837BD4680BD80B56C
:1021700000AFFFF7B1FF000080B586B000AF786018
:1021800000237B61FFF7FEFA38617B68002B01D1E9
:10219000012399E07B68002283F834207B680222C7
:1021A00083F835207B681B681A687B681B6822F0FF
:1021B00001021A600FE0FFF7E5FA02463B69D31A05
:1021C000052B08D97B6820225A657B68032283F897
:1021D0003520032378E07B681B681B6803F001034C
:1021E000002BE8D17B681B681B687B617A69384BE0
:1021F00013407B617B685A687B689B681A437B68E5
:10220000DB681A437B681B691A437B685B691A4366
:102210007B689B691A437B68DB691A437B681B6A8E
:1022200013437A6913437B617B685B6A042B07D194
:102230007B68DA6A7B681B6B13437A6913437B61A3
:102240007B681B687A691A607B681B685B697B61C5
:102250007B6923F007037B617B685B6A7A691343C0
:102260007B617B685B6A042B17D17B689B6A7A6908
:1022700013437B617B68DB6A002B0ED0786800F02B
:102280006FFA0346002B08D07B6840225A657B68B2
:10229000012283F83520012316E07B681B687A69E8
:1022A0005A61786800F026FA0346FB607B68DB6DB4
:1022B0003F229A40FB689A607B6800225A657B68DF
:1022C000012283F83520002318461837BD4680BD0B
:1022D0003F8010F080B586B000AFF860B9607A60DA
:1022E0003B600023FB75FB689B6D3B61FB6893F8CB
:1022F0003430012B01D1022340E0FB68012283F836
:102300003420FB6893F83530DBB2012B2FD1FB680A
:10231000022283F83520FB6800225A653B687A6800
:10232000B968F86800F0B8F9FB68DB6D3F229A40A5
:102330003B699A60FB681B681A68FB681B6842F07F
:1023400016021A60FB681B6C002B07D0FB681B6829
:102350001A68FB681B6842F008021A60FB681B6879
:102360001A68FB681B6842F001021A6005E0FB680E
:10237000002283F834200223FB75FB7D18461837B2
:10238000BD4680BD80B586B000AF78600023BB60DD
:10239000924B1B68924AA2FB03239B0A7B617B68DA
:1023A0009B6D3B613B691B68FB607B68DB6D0822B2
:1023B0009A40FB681340002B1AD07B681B681B688F
:1023C00003F00403002B13D07B681B681A687B683A
:1023D0001B6822F004021A607B68DB6D08229A40B9
:1023E0003B699A607B685B6D43F001027B685A65CC
:1023F0007B68DB6D01229A40FB681340002B12D0F2
:102400007B681B685B6903F08003002B0BD07B6843
:10241000DB6D01229A403B699A607B685B6D43F0FB
:1024200002027B685A657B68DB6D04229A40FB6878
:102430001340002B12D07B681B681B6803F002035B
:10244000002B0BD07B68DB6D04229A403B699A60BD
:102450007B685B6D43F004027B685A657B68DB6DCB
:1024600010229A40FB681340002B43D07B681B6806
:102470001B6803F00803002B3CD07B68DB6D102247
:102480009A403B699A607B681B681B6803F4802351
:10249000002B18D07B681B681B6803F40023002BFB
:1024A00008D17B681B6C002B24D07B681B6C786880
:1024B00098471FE07B689B6C002B1BD07B689B6C54
:1024C0007868984716E07B681B681B6803F4807384
:1024D000002B07D17B681B681A687B681B6822F099
:1024E00008021A607B681B6C002B03D07B681B6C96
:1024F000786898477B68DB6D20229A40FB68134020
:10250000002B00F08E807B681B681B6803F01003B3
:10251000002B00F086807B68DB6D20229A403B69AF
:102520009A607B6893F83530DBB2052B36D17B6837
:102530001B681A687B681B6822F016021A607B68A9
:102540001B685A697B681B6822F080025A617B68AD
:102550001B6C002B03D17B689B6C002B07D07B6826
:102560001B681A687B681B6822F008021A607B6887
:10257000DB6D3F229A403B699A607B68002283F8BA
:1025800034207B68012283F835207B681B6D002B8B
:102590007DD07B681B6D7868984778E07B681B6806
:1025A0001B6803F48023002B1CD07B681B681B680E
:1025B00003F40023002B08D17B685B6C002B30D028
:1025C0007B685B6C786898472BE07B68DB6B002B43
:1025D00027D07B68DB6B7868984722E008000020F2
:1025E000B5814E1B7B681B681B6803F48073002B4E
:1025F0000FD17B681B681A687B681B6822F0100289
:102600001A607B68002283F834207B68012283F8FB
:1026100035207B68DB6B002B03D07B68DB6B786835
:1026200098477B685B6D002B32D07B685B6D03F055
:102630000103002B22D07B68052283F835207B68BC
:102640001B681A687B681B6822F001021A60BB686D
:102650000133BB607A699A4207D37B681B681B68A9
:1026600003F00103002BF2D100E000BF7B680022E1
:1026700083F834207B68012283F835207B68DB6C8B
:10268000002B05D07B68DB6C7868984700E000BFC2
:102690001837BD4680BD00BF80B485B000AFF8607C
:1026A000B9607A603B60FB681B681A68FB681B684E
:1026B00022F480221A60FB681B683A685A60FB6843
:1026C0009B68402B08D1FB681B687A689A60FB689E
:1026D0001B68BA68DA6007E0FB681B68BA689A6032
:1026E000FB681B687A68DA6000BF1437BD465DF886
:1026F000047B704780B485B000AF78607B681B684E
:10270000DBB2103B144AA2FB03231B09FB60134AF4
:10271000FB6813441B781A467B68DA65FB68032B59
:1027200009D97B681B6823F47F7323F003031A1D08
:102730007B689A6507E07B681B6823F47F7323F04E
:1027400003037A6893657B689B6D18461437BD4612
:102750005DF8047B704700BFABAAAAAAC4150108A4
:1027600080B485B000AF78600023FB737B689B6A00
:10277000BB607B689B69002B1FD1BB68032B56D8BD
:1027800001A252F823F000BF99270008AB270008E8
:10279000992700082F2800087B68DB6A03F0807304
:1027A000002B46D00123FB7343E07B68DB6AB3F167
:1027B000C07F40D10123FB733DE07B689B69B3F58B
:1027C000005F21D1BB68032B37D801A252F823F058
:1027D000E1270008E7270008E1270008F92700089B
:1027E0000123FB7330E07B68DB6A03F08073002B0E
:1027F00025D00123FB7322E07B68DB6AB3F1C07F45
:102800001FD10123FB731CE0BB68022B03D9BB68FB
:10281000032B03D018E00123FB7315E07B68DB6A10
:1028200003F08073002B0ED00123FB730BE000BF7D
:102830000AE000BF08E000BF06E000BF04E000BF00
:1028400002E000BF00E000BFFB7B18461437BD4626
:102850005DF8047B704700BF80B586B000AFF860BC
:10286000B960C7E900230123FB75234B1B7E012BB5
:1028700001D102233BE0204B01221A764CF250306A
:1028800000F070F80346FB75FB7D002B2BD1FB6835
:10289000002B05D13B781946B86800F01BF916E00B
:1028A000FB68012B05D13B881946B86800F0EEF8AB
:1028B0000DE0FB68022B05D13B681946B86800F0B3
:1028C000C3F804E0D7E90023B86800F08BF84CF2B5
:1028D000503000F047F80346FB75084B1B69074A68
:1028E00023F001031361044B00221A76FB7D184686
:1028F0001837BD4680BD00BFD4520020003C0240C6
:1029000080B483B000AF0023FB710B4B1B69002B1D
:102910000BDA094B094A5A60074B094A5A60064BC1
:102920001B69002B01DA0123FB71FB7918460C3778
:10293000BD465DF8047B7047003C024023016745BB
:10294000AB89EFCD80B400AF054B1B69044A43F05F
:102950000043136100231846BD465DF8047B7047B1
:10296000003C024080B584B000AF78600023FB607B
:102970001A4B0022DA61FEF705FFF86010E07B6871
:10298000B3F1FF3F0CD07B68002B07D0FEF7FAFEB7
:102990000246FB68D31A7A689A4201D2032319E0EF
:1029A0000F4BDB6803F48033002BE8D10C4BDB6862
:1029B00003F00103002B02D0094B0122DA60084B1F
:1029C000DB6803F4F973002B03D000F0A5F80123B2
:1029D00000E0002318461037BD4680BDD4520020C9
:1029E000003C024080B485B000AFF860C7E9002326
:1029F000144B1B69134A23F440731361114B1B6979
:102A0000104A43F4407313610E4B1B690D4A43F0A7
:102A100001031361FB683A681A60BFF36F8F00BF50
:102A2000D7E900014FF000024FF000030A00002335
:102A3000F968043113460B6000BF1437BD465DF8DA
:102A4000047B7047003C024080B483B000AF7860E4
:102A500039600D4B1B690C4A23F4407313610A4B18
:102A60001B69094A43F400731361074B1B69064A4B
:102A700043F0010313617B683A681A6000BF0C37AA
:102A8000BD465DF8047B7047003C024080B483B0D3
:102A900000AF78600B467B800D4B1B690C4A23F41A
:102AA000407313610A4B1B69094A43F48073136135
:102AB000074B1B69064A43F0010313617B687A8860
:102AC0001A8000BF0C37BD465DF8047B704700BF1D
:102AD000003C024080B483B000AF78600B46FB70CE
:102AE0000C4B1B690B4A23F440731361094B094AD1
:102AF0001B691361074B1B69064A43F0010313610D
:102B00007B68FA781A7000BF0C37BD465DF8047B0D
:102B1000704700BF003C024080B400AF2F4BDB6821
:102B200003F01003002B08D02D4BDB6943F010039A
:102B30002B4AD361294B1022DA60284BDB6803F063
:102B40002003002B08D0264BDB6943F00803244AFE
:102B5000D361224B2022DA60204BDB6803F0400374
:102B6000002B08D01E4BDB6943F004031C4AD361E1
:102B70001A4B4022DA60194BDB6803F08003002B0C
:102B800008D0174BDB6943F00203154AD361134B9E
:102B90008022DA60114BDB6803F48073002B09D0CC
:102BA0000F4BDB6943F001030D4AD3610B4B4FF42C
:102BB0008072DA60094BDB6803F00203002B08D057
:102BC000074BDB6943F02003054AD361034B022224
:102BD000DA6000BFBD465DF8047B7047003C0240F0
:102BE000D452002080B485B000AF78600B46FB70F3
:102BF0000023FB60FB78002B02D10023FB6010E078
:102C0000FB78012B03D14FF48073FB6009E0FB7864
:102C1000022B03D14FF40073FB6002E04FF44073CA
:102C2000FB60134B1B69124A23F440731361104B72
:102C30001A690F49FB6813430B610D4B1B690C4A62
:102C400023F0F80313610A4B1A697B68DB00134316
:102C5000074A43F002031361054B1B69044A43F41E
:102C60008033136100BF1437BD465DF8047B7047A5
:102C7000003C024080B489B000AF78603960002326
:102C80007B6100233B610023BB610023FB6159E1B1
:102C90000122FB6902FA03F37B613B681B687A69D6
:102CA00013403B613A697B699A4240F048813B6836
:102CB0005B68012B0BD03B685B68022B07D03B683D
:102CC0005B68112B03D03B685B68122B30D17B68AB
:102CD0009B68BB61FB695B00032202FA03F3DB43E1
:102CE000BA691340BB613B68DA68FB695B0002FAB2
:102CF00003F3BA691343BB617B68BA699A607B6866
:102D00005B68BB610122FB6902FA03F3DB43BA692A
:102D10001340BB613B685B681B0903F00102FB6960
:102D200002FA03F3BA691343BB617B68BA695A605C
:102D30007B68DB68BB61FB695B00032202FA03F37B
:102D4000DB43BA691340BB613B689A68FB695B006F
:102D500002FA03F3BA691343BB617B68BA69DA60AC
:102D60003B685B68022B03D03B685B68122B23D166
:102D7000FB69DA087B68083253F82230BB61FB69D3
:102D800003F007039B000F2202FA03F3DB43BA6947
:102D90001340BB613B681A69FB6903F007039B00A2
:102DA00002FA03F3BA691343BB61FB69DA087B6873
:102DB0000832B96943F822107B681B68BB61FB6964
:102DC0005B00032202FA03F3DB43BA691340BB61E1
:102DD0003B685B6803F00302FB695B0002FA03F3E4
:102DE000BA691343BB617B68BA691A603B685B6868
:102DF00003F08053002B00F0A2800023FB60574BB0
:102E00005B6C564A43F480435364544B5B6C03F44D
:102E10008043FB60FB68524AFB699B08023352F80F
:102E20002330BB61FB6903F003039B000F2202FA0E
:102E300003F3DB43BA691340BB617B68494A9342A1
:102E400019D07B68484A934213D07B68474A934223
:102E50000DD07B68464A934207D07B68454A93422F
:102E600001D1042308E0072306E0032304E0022342
:102E700002E0012300E00023FA6902F0030292005D
:102E80009340BA691343BB613549FB699B08023320
:102E9000BA6941F82320384B1B68BB613B69DB43AF
:102EA000BA691340BB613B685B6803F48033002B55
:102EB00003D0BA693B691343BB612F4ABB691360F6
:102EC0002D4B5B68BB613B69DB43BA691340BB6157
:102ED0003B685B6803F40033002B03D0BA693B699D
:102EE0001343BB61244ABB695360234B9B68BB619E
:102EF0003B69DB43BA691340BB613B685B6803F421
:102F00008013002B03D0BA693B691343BB611A4A93
:102F1000BB699360184BDB68BB613B69DB43BA69F3
:102F20001340BB613B685B6803F40013002B03D0C4
:102F3000BA693B691343BB610F4ABB69D360FB6944
:102F40000133FB61FB690F2B7FF6A2AE00BF00BF10
:102F50002437BD465DF8047B704700BF003802404F
:102F60000038014000000240000402400008024016
:102F7000000C024000100240003C014080B485B0CB
:102F800000AF78600B467B807B681A697B881340B2
:102F9000002B02D00123FB7301E00023FB73FB7BBA
:102FA00018461437BD465DF8047B704780B483B083
:102FB00000AF78600B467B8013467B707B78002BDC
:102FC00003D07A887B689A6103E07B881A047B6867
:102FD0009A6100BF0C37BD465DF8047B7047000066
:102FE00080B582B000AF0346FB80084B5A69FB886E
:102FF0001340002B06D0054AFB885361FB88184616
:10300000FDF73EFE00BF0837BD4680BD003C0140D5
:1030100080B584B000AF78607B68002B01D10123BC
:103020002BE17B6893F83D30DBB2002B06D17B6847
:10303000002283F83C207868FEF79AF87B68242207
:1030400083F83D207B681B681A687B681B6822F048
:1030500001021A607B681B681A687B681B6842F46F
:1030600000421A607B681B681A687B681B6822F440
:1030700000421A6002F028FDF8607B685B68814AB4
:10308000934207D8FB68804A934294BF01230023F0
:10309000DBB206E0FB687D4A934294BF0123002324
:1030A000DBB2002B01D00123E7E0FB68784AA2FBEA
:1030B00003239B0CBB607B681B685B6823F03F01AC
:1030C0007B681B68BA680A435A607B681B681B6A86
:1030D00023F03F017B685B686A4A934202D8BB6871
:1030E000013309E0BB684FF4967202FB03F3694AAF
:1030F000A2FB03239B0901337A6812680B43136216
:103100007B681B68DB6923F44F4222F0FF027B6877
:103110005B685C498B4219D8FB68591E7B685B6809
:103120005B00B1FBF3F3591C40F6FC730B40002B22
:103130000AD0FB68591E7B685B685B00B1FBF3F348
:103140000133C3F30B0351E004234FE07B689B681A
:10315000002B11D1FB68581E7B6859680B465B0039
:103160000B44B0FBF3F30133C3F30B03002B0CBF91
:1031700001230023DBB212E0FB68581E7B6859680C
:103180000B469B000B4499000B44B0FBF3F3013357
:10319000C3F30B03002B0CBF01230023DBB2002B76
:1031A00001D0012322E07B689B68002B0ED1FB68D5
:1031B000581E7B6859680B465B000B44B0FBF3F369
:1031C0000133C3F30B0343F400430FE0FB68581EC5
:1031D0007B6859680B469B000B4499000B44B0FB7D
:1031E000F3F30133C3F30B0343F4404379680968F5
:1031F0001343CB617B681B681B6823F0C0017B68AD
:10320000DA697B681B6A1A437B681B680A431A6089
:103210007B681B689B6823F4034323F0FF037A68F1
:1032200011697A68D26811437A6812680B43936017
:103230007B681B68DB6823F0FF017B685A697B6849
:103240009B691A437B681B680A43DA607B681B68CA
:103250001A687B681B6842F001021A607B680022D2
:103260001A647B68202283F83D207B6800221A6361
:103270007B68002283F83E20002318461037BD46A5
:1032800080BD00BFA08601007F841E00FF083D00B6
:1032900083DE1B43D34D621080B588B002AFF86067
:1032A0007A601A460B467B8113463B81FEF76AFA29
:1032B0007861FB6893F83D30DBB2202B40F0E08072
:1032C0007B690093192301227049F86800F072FCB1
:1032D0000346002B01D00223D3E0FB6893F83C3077
:1032E000012B01D10223CCE0FB68012283F83C20B2
:1032F000FB681B681B6803F00103012B07D0FB6808
:103300001B681A68FB681B6842F001021A60FB68C0
:103310001B681A68FB681B6822F400621A60FB686D
:10332000212283F83D20FB68102283F83E20FB68B1
:1033300000221A64FB687A685A62FB683A895A85E7
:10334000FB685B8D9AB2FB681A85FB68504ADA62AB
:1033500079897B693A6AF86800F0C2FA0346002B63
:1033600001D001238DE000233B61FB681B685B6992
:103370003B61FB681B689B693B613B6966E07A695E
:10338000396AF86800F0ECFC0346002B0DD0FB68AE
:103390001B6C042B07D1FB681B681A68FB681B6851
:1033A00042F400721A6001236BE0FB685B6A1A78D2
:1033B000FB681B681A61FB685B6A5A1CFB685A62EF
:1033C000FB685B8D9BB2013B9AB2FB685A85FB6838
:1033D0001B8D013B9AB2FB681A85FB681B685B6911
:1033E00003F00403042B1BD1FB681B8D002B17D0AB
:1033F000FB685B6A1A78FB681B681A61FB685B6A8A
:103400005A1CFB685A62FB685B8D9BB2013B9AB207
:10341000FB685A85FB681B8D013B9AB2FB681A85D5
:103420007A69396AF86800F0DCFC0346002B0DD09D
:10343000FB681B6C042B07D1FB681B681A68FB68D0
:103440001B6842F400721A6001231AE0FB681B8DAE
:10345000002B94D1FB681B681A68FB681B6842F458
:1034600000721A60FB68202283F83D20FB6800226E
:1034700083F83E20FB68002283F83C20002300E014
:10348000022318461837BD4680BD00BF0200100059
:103490000000FFFF80B58CB002AFF860084611460F
:1034A0001A4603467B810B463B811346FB80FEF7A1
:1034B00069F97862FB6893F83D30DBB2202B40F06D
:1034C00008827B6A0093192301227B49F86800F087
:1034D00071FB0346002B01D00223FBE1FB6893F84C
:1034E0003C30012B01D10223F4E1FB68012283F877
:1034F0003C20FB681B681B6803F00103012B07D00D
:10350000FB681B681A68FB681B6842F001021A60BE
:10351000FB681B681A68FB681B6822F400621A606B
:10352000FB68222283F83D20FB68402283F83E207E
:10353000FB6800221A64FB683A6B5A62FB68BA8E19
:103540005A85FB685B8D9AB2FB681A85FB685B4AFB
:10355000DA62F8883A8979897B6A0193BB6B0093B8
:103560000346F86800F03EFA0346002B01D0012321
:10357000B0E1FB681B8D002B13D100233B62FB687D
:103580001B685B693B62FB681B689B693B623B6A2B
:10359000FB681B681A68FB681B6842F400721A60BB
:1035A00084E1FB681B8D012B1BD1FB681B681A682B
:1035B000FB681B6822F480621A600023FB61FB68D1
:1035C0001B685B69FB61FB681B689B69FB61FB69AE
:1035D000FB681B681A68FB681B6842F400721A607B
:1035E00064E1FB681B8D022B1BD1FB681B681A680A
:1035F000FB681B6822F480621A60FB681B681A680B
:10360000FB681B6842F400621A600023BB61FB6820
:103610001B685B69BB61FB681B689B69BB61BB691D
:1036200044E100237B61FB681B685B697B61FB688D
:103630001B689B697B617B6938E1FB681B8D032BF1
:1036400000F2F180FB681B8D012B23D17A6AB96BE4
:10365000F86800F007FC0346002B01D0012339E194
:10366000FB681B681A69FB685B6AD2B21A70FB6858
:103670005B6A5A1CFB685A62FB681B8D013B9AB25D
:10368000FB681A85FB685B8D9BB2013B9AB2FB68B5
:103690005A850BE1FB681B8D022B4ED17B6A009390
:1036A000BB6B00220649F86800F084FA0346002B41
:1036B00008D001230EE100BF020010000000FFFF50
:1036C00004000100FB681B681A68FB681B6842F471
:1036D00000721A60FB681B681A69FB685B6AD2B2E9
:1036E0001A70FB685B6A5A1CFB685A62FB681B8D88
:1036F000013B9AB2FB681A85FB685B8D9BB2013B6C
:103700009AB2FB685A85FB681B681A69FB685B6A9A
:10371000D2B21A70FB685B6A5A1CFB685A62FB687B
:103720001B8D013B9AB2FB681A85FB685B8D9BB2CF
:10373000013B9AB2FB685A85B8E07B6A0093BB6B89
:1037400000226649F86800F035FA0346002B01D0E4
:103750000123BFE0FB681B681A68FB681B6822F442
:1037600080621A60FB681B681A69FB685B6AD2B2E8
:103770001A70FB685B6A5A1CFB685A62FB681B8DF7
:10378000013B9AB2FB681A85FB685B8D9BB2013BDB
:103790009AB2FB685A857B6A0093BB6B00224F4943
:1037A000F86800F007FA0346002B01D0012391E0EE
:1037B000FB681B681A68FB681B6842F400721A6099
:1037C000FB681B681A69FB685B6AD2B21A70FB68F7
:1037D0005B6A5A1CFB685A62FB681B8D013B9AB2FC
:1037E000FB681A85FB685B8D9BB2013B9AB2FB6854
:1037F0005A85FB681B681A69FB685B6AD2B21A704B
:10380000FB685B6A5A1CFB685A62FB681B8D013BB4
:103810009AB2FB681A85FB685B8D9BB2013B9AB23A
:10382000FB685A8542E07A6AB96BF86800F01AFBC7
:103830000346002B01D001234CE0FB681B681A698A
:10384000FB685B6AD2B21A70FB685B6A5A1CFB6841
:103850005A62FB681B8D013B9AB2FB681A85FB68B4
:103860005B8D9BB2013B9AB2FB685A85FB681B6873
:103870005B6903F00403042B18D1FB681B681A6909
:10388000FB685B6AD2B21A70FB685B6A5A1CFB6801
:103890005A62FB681B8D013B9AB2FB681A85FB6874
:1038A0005B8D9BB2013B9AB2FB685A85FB681B8D0E
:1038B000002B7FF4C2AEFB68202283F83D20FB681A
:1038C000002283F83E20FB68002283F83C2000237E
:1038D00000E0022318462837BD4680BD04000100E1
:1038E00080B588B002AFF8607A603B600B467B81A0
:1038F000FB68DB6A7B617B69082B06D07B69012B47
:1039000003D07B6913F5803F08D1FB681B681A68F8
:10391000FB681B6842F480721A600BE0FB681B6B4B
:10392000122B07D1FB681B681A68FB681B6842F4FE
:1039300080721A603B6800937B6800224FF001118F
:10394000F86800F037F90346002B0DD0FB681B68C0
:103950001B6803F48073B3F5807F03D1FB684FF4D9
:1039600000721A64032335E0FB681B69B3F5804FCE
:1039700008D17B89DBB21A46FB681B6802F0FE02A5
:103980001A611BE07B89DB11DBB203F00603DBB2BB
:1039900063F00F03DAB2FB681B681A613B687A6850
:1039A0000E49F86800F05DF90346002B01D00123B1
:1039B00010E07B89DAB2FB681B681A613B687A68A1
:1039C0000749F86800F04DF90346002B01D00123A8
:1039D00000E0002318461837BD4680BD08000100EE
:1039E0000200010080B588B002AFF86008461146B9
:1039F0001A4603467B810B463B811346FB80FB68DE
:103A00001B681A68FB681B6842F480621A60FB68D6
:103A10001B681A68FB681B6842F480721A607B6A34
:103A200000933B6A00224FF00111F86800F0C2F8E1
:103A30000346002B0DD0FB681B681B6803F48073E2
:103A4000B3F5807F03D1FB684FF400721A6403233F
:103A5000AAE07B89DBB21A46FB681B6802F0FE0213
:103A60001A617B6A3A6A5249F86800F0FAF803462C
:103A7000002B01D0012397E000237B61FB681B68CA
:103A80005B697B61FB681B689B697B617B697A6A08
:103A9000396AF86800F064F90346002B0DD0FB6822
:103AA0001B6C042B07D1FB681B681A68FB681B683A
:103AB00042F400721A60012376E0FB88012B05D1E5
:103AC0003B89DAB2FB681B681A6121E03B891B0A5B
:103AD0009BB2DAB2FB681B681A617A6A396AF868C5
:103AE00000F03EF90346002B0DD0FB681B6C042B45
:103AF00007D1FB681B681A68FB681B6842F40072F8
:103B00001A60012350E03B89DAB2FB681B681A6136
:103B10007A6A396AF86800F023F90346002B0DD061
:103B2000FB681B6C042B07D1FB681B681A68FB68D9
:103B30001B6842F400721A60012335E0FB681B68C1
:103B40001A68FB681B6842F480721A607B6A0093F3
:103B50003B6A00224FF00111F86800F02BF8034691
:103B6000002B0DD0FB681B681B6803F48073B3F552
:103B7000807F03D1FB684FF400721A64032313E0C3
:103B80007B89DBB243F00103DAB2FB681B681A6180
:103B90007B6A3A6A0649F86800F063F80346002B2E
:103BA00001D0012300E0002318461837BD4680BD30
:103BB0000200010080B584B000AFF860B9603B60DE
:103BC0001346FB7125E03B68B3F1FF3F21D0FDF7C1
:103BD000D9FD0246BB69D31A3A689A4202D33B68C0
:103BE000002B16D1FB6800221A63FB68202283F8A1
:103BF0003D20FB68002283F83E20FB681B6C43F0ED
:103C00002002FB681A64FB68002283F83C20012331
:103C100023E0BB681B0CDBB2012B0DD1FB681B68DA
:103C20005B69DA43BB6813409BB2002B0CBF0123D6
:103C30000023DBB21A460CE0FB681B689B69DA4381
:103C4000BB6813409BB2002B0CBF01230023DBB2E7
:103C50001A46FB799A42B6D0002318461037BD4663
:103C600080BD80B584B000AFF860B9607A603B6019
:103C700051E0FB681B685B6903F48063B3F5806FF8
:103C800023D1FB681B681A68FB681B6842F400724A
:103C90001A60FB681B686FF480625A61FB6800223F
:103CA0001A63FB68202283F83D20FB68002283F81A
:103CB0003E20FB681B6C43F00402FB681A64FB683F
:103CC000002283F83C20012346E07B68B3F1FF3FEC
:103CD00021D0FDF757FD02463B68D31A7A689A4215
:103CE00002D37B68002B16D1FB6800221A63FB68A5
:103CF000202283F83D20FB68002283F83E20FB68E9
:103D00001B6C43F02002FB681A64FB68002283F8F6
:103D10003C20012320E0BB681B0CDBB2012B0CD143
:103D2000FB681B685B69DA43BB6813409BB2002BDE
:103D300014BF01230023DBB20BE0FB681B689B6907
:103D4000DA43BB6813409BB2002B14BF012300234E
:103D5000DBB2002B8DD1002318461037BD4680BD45
:103D600080B584B000AFF860B9607A602DE0F86883
:103D700000F0CEF80346002B01D001232DE0BB68F4
:103D8000B3F1FF3F21D0FDF7FDFC02467B68D31A5B
:103D9000BA689A4202D3BB68002B16D1FB68002296
:103DA0001A63FB68202283F83D20FB68002283F819
:103DB0003E20FB681B6C43F02002FB681A64FB6822
:103DC000002283F83C20012307E0FB681B685B6945
:103DD00003F08003802BCAD1002318461037BD465C
:103DE00080BD80B584B000AFF860B9607A602DE026
:103DF000F86800F08DF80346002B01D001232DE078
:103E0000BB68B3F1FF3F21D0FDF7BCFC02467B68E5
:103E1000D31ABA689A4202D3BB68002B16D1FB684A
:103E200000221A63FB68202283F83D20FB680022F1
:103E300083F83E20FB681B6C43F02002FB681A6489
:103E4000FB68002283F83C20012307E0FB681B6825
:103E50005B6903F00403042BCAD100231846103712
:103E6000BD4680BD80B584B000AFF860B9607A60AF
:103E700042E0FB681B685B6903F01003102B19D14B
:103E8000FB681B686FF010025A61FB6800221A631E
:103E9000FB68202283F83D20FB68002283F83E2047
:103EA000FB681A6CFB681A64FB68002283F83C20EC
:103EB000012329E0FDF766FC02467B68D31ABA6845
:103EC0009A4202D3BB68002B16D1FB6800221A630A
:103ED000FB68202283F83D20FB68002283F83E2007
:103EE000FB681B6C43F02002FB681A64FB6800222D
:103EF00083F83C20012307E0FB681B685B6903F043
:103F00004003402BB5D1002318461037BD4680BD75
:103F100080B483B000AF78607B681B685B6903F492
:103F20008063B3F5806F1BD17B681B686FF4806280
:103F30005A617B6800221A637B68202283F83D2047
:103F40007B68002283F83E207B681B6C43F00402F0
:103F50007B681A647B68002283F83C20012300E020
:103F6000002318460C37BD465DF8047B7047F0B55A
:103F70008FB00AAF78607B68002B01D101230FE17D
:103F80007B681B68BB607B6893F8BD33DBB2002B9A
:103F900006D17B68002283F8BC2378680BF058FFB9
:103FA0007B68032283F8BD23BB68DB6B03F480735B
:103FB000002B02D17B6800221A617B681B681846BF
:103FC00003F091FC7B681B683B607E686D4606F1E0
:103FD00010040FCC0FC50FCC0FC594E8030085E883
:103FE0000300331D0ECB386803F068FB0346002B3B
:103FF00005D07B68022283F8BD230123D0E07B68D3
:104000001B680021184603F07FFC0023FB734AE085
:10401000FA7B79681346DB009B1A9B000B443D3307
:1040200001221A70FA7B79681346DB009B1A9B0009
:104030000B443C33FA7B1A70FA7BFB7B98B27968AD
:104040001346DB009B1A9B000B44423302461A8046
:10405000FA7B79681346DB009B1A9B000B443F33C5
:1040600000221A70FA7B79681346DB009B1A9B00CA
:104070000B44443300221A60FA7B79681346DB0054
:104080009B1A9B000B44483300221A60FA7B796824
:104090001346DB009B1A9B000B44503300221A602E
:1040A000FB7B0133FB73FA7B7B685B689A42AFD37F
:1040B0000023FB7344E0FA7B79681346DB009B1A0C
:1040C0009B000B4403F2FD1300221A70FA7B7968FF
:1040D0001346DB009B1A9B000B4403F5FE73FA7B2F
:1040E0001A70FA7B79681346DB009B1A9B000B441D
:1040F00003F2FF1300221A70FA7B79681346DB0083
:104100009B1A9B000B4403F5017300221A60FA7B93
:1041100079681346DB009B1A9B000B4403F502737E
:1041200000221A60FA7B79681346DB009B1A9B0019
:104130000B4403F5047300221A60FB7B0133FB730D
:10414000FA7B7B685B689A42B5D37B681B683B60EF
:104150007E686D4606F110040FCC0FC50FCC0FC55D
:1041600094E8030085E80300331D0ECB386803F0A4
:10417000F5FB0346002B05D07B68022283F8BD23A4
:1041800001230DE07B68002283F838207B68012240
:1041900083F8BD237B681B68184604F03DFC0023B0
:1041A00018461437BD46F0BD80B584B000AF7860C6
:1041B0007B681B68FB607B6893F8BC33012B01D1E3
:1041C000022320E07B68012283F8BC237B689B6A82
:1041D000012B09D17B689B69012B05D0FB689B6B88
:1041E00043F48032FB689A637B681B68184603F0CF
:1041F00069FB7B681B68184604F0EDFB7B680022B6
:1042000083F8BC23002318461037BD4680BD90B507
:104210008DB000AF78607B681B683B623B6AFB61D6
:104220007B681B68184604F0ABFC0346002B40F08B
:104230009D837B681B68184604F00FFC0346002B27
:1042400000F093837B681B68184604F006FC034665
:1042500003F00203022B07D17B681B685A697B6855
:104260001B6802F002025A617B681B68184604F062
:10427000F4FB034603F01003102B61D17B681B682D
:104280009A697B681B6822F010029A613B6A1B6A7C
:10429000BB61BB6903F00F021346DB009B1A9B0056
:1042A00003F5FC737A68134404337B61BB695B0CD0
:1042B00003F00F03022B24D1BA6947F6F0731340C1
:1042C000002B35D07B69D968BB691B099BB2C3F34E
:1042D0000A039BB21A46386A04F05AFA7B69DA6814
:1042E000BB691B09C3F30A031A447B69DA607B6963
:1042F0009A69BB691B09C3F30A031A447B699A6173
:1043000016E0BB695B0C03F00F03062B10D17B6832
:1043100003F5717308221946386A04F039FA7B698B
:104320009A69BB691B09C3F30A031A447B699A6142
:104330007B681B689A697B681B6842F010029A616F
:104340007B681B68184604F088FB034603F40023CF
:10435000B3F5002F6ED100237B627B681B68184683
:1043600004F08EFBB86262E0BB6A03F00103002B2D
:1043700057D07B681B687A6AD2B21146184604F09F
:10438000B3FB38613B6903F00103002B0CD07B6A5F
:104390005A01FB69134403F530631A460123936005
:1043A000796A786800F098FD3B6903F00803002BF8
:1043B0000CD07B6A5A01FB69134403F530631A463B
:1043C00008239360796A786800F092FE3B6903F0F5
:1043D0001003002B08D07B6A5A01FB69134403F5D4
:1043E00030631A46102393603B6903F02003002BCF
:1043F00008D07B6A5A01FB69134403F530631A46FF
:10440000202393603B6903F40053002B09D07B6A9F
:104410005A01FB69134403F530631A464FF4005305
:1044200093607B6A01337B62BB6A5B08BB62BB6AD9
:10443000002B99D17B681B68184604F00EFB0346DD
:1044400003F48023B3F5802F40F0C0807B681B68A5
:10445000184604F02FFBB86200237B62B2E0BB6A0F
:1044600003F00103002B00F0A7807B681B687A6AC9
:10447000D2B21146184604F055FB38613B6903F08F
:104480000103002B57D07B6A03F00F03012202FACD
:1044900003F3FB60FB6903F500635A6BFB68DB43C6
:1044A000F96901F5006113404B637B6A5A01FB69AE
:1044B000134403F510631A46012393607B681B695C
:1044C000012B32D179687A6A1346DB009B1A9B0074
:1044D0000B444833196878687A6A1346DB009B1AE4
:1044E0009B00034444331B68194478687A6A134676
:1044F000DB009B1A9B000344483319607B6A002B46
:1045000013D179687A6A1346DB009B1A9B000B442F
:1045100050331B68002B08D17B6818687B6803F553
:1045200071731A46012104F05DFB7B6ADBB2194608
:1045300078680BF00EFD3B6903F00803002B08D0F0
:104540007B6A5A01FB69134403F510631A4608237A
:1045500093603B6903F01003002B08D07B6A5A017B
:10456000FB69134403F510631A46102393603B69FB
:1045700003F04003002B08D07B6A5A01FB69134407
:1045800003F510631A46402393603B6903F002036E
:10459000002B08D07B6A5A01FB69134403F51063B2
:1045A0001A46022393603B6903F08003002B03D07B
:1045B000796A786800F003FC7B6A01337B62BB6A2E
:1045C0005B08BB62BB6A002B7FF449AF7B681B684A
:1045D000184604F042FA034603F00043B3F1004FDB
:1045E00022D1FB6903F500635B68FA6902F500629A
:1045F00023F0010353607B6893F8F433012B08D157
:104600007B68002283F8F4230021786800F00EFE16
:1046100002E078680BF00AFD7B681B685A697B68CA
:104620001B6802F000425A617B681B68184604F060
:1046300014FA034603F40063B3F5006F12D1FB696B
:1046400003F500639B6803F00103012B02D1786836
:104650000BF0C6FC7B681B685A697B681B6802F418
:1046600000625A617B681B68184604F0F6F903463D
:1046700003F48053B3F5805F40F0C780FB6903F516
:1046800000635B68FA6902F5006223F0010353607E
:104690007B681B681021184603F0C4FA0023FB62F4
:1046A00056E0FB6A5A01FB69134403F510631A468E
:1046B0004FF67F339360FB6A5A01FB69134403F59D
:1046C00010631B68FA6A5101FA690A4402F5106224
:1046D00023F400131360FB6A5A01FB69134403F5CA
:1046E00010631B68FA6A5101FA690A4402F5106204
:1046F00043F000631360FB6A5A01FB69134403F53E
:1047000030631A464FF67F339360FB6A5A01FB69A8
:10471000134403F530631B68FA6A5101FA690A44CD
:1047200002F5306223F400131360FB6A5A01FB693F
:10473000134403F530631B68FA6A5101FA690A44AD
:1047400002F5306243F000631360FB6A0133FB62E1
:104750007B685B68FA6A9A42A3D3FB6903F500633E
:10476000DB69FA6902F5006243F00113D3617B68EB
:104770001B6B002B16D0FB6903F50063D3F8843064
:10478000FA6902F5006243F00B03C2F88430FB695A
:1047900003F500635B6CFA6902F5006243F00B03FA
:1047A000536415E0FB6903F500635B69FA6902F580
:1047B000006243F4005343F02B035361FB6903F59C
:1047C00000631B69FA6902F5006243F00B03136191
:1047D000FB6903F500631B68FA6902F5006223F4C4
:1047E000FE6313607B6818687B681B69D9B27B68BD
:1047F00003F571731A4604F0F5F97B681B685A6972
:104800007B681B6802F480525A617B681B681846FB
:1048100004F023F9034603F40053B3F5005F24D1F9
:104820007B681B68184604F0B9F97B681B6818465A
:1048300003F059FA03461A467B68DA607B681C6805
:1048400001F036F901467B68DB68DBB21A46204688
:1048500002F096FF78680BF0A4FB7B681B685A692E
:104860007B681B6802F400525A617B681B6818461B
:1048700004F0F3F8034603F00803082B0AD1786824
:104880000BF081FB7B681B685A697B681B6802F030
:1048900008025A617B681B68184604F0DEF803467C
:1048A00003F48013B3F5801F0FD100237B627B6A72
:1048B000DBB2194678680BF0D9FB7B681B685A6934
:1048C0007B681B6802F480125A617B681B6818467B
:1048D00004F0C3F8034603F40013B3F5001F0FD12F
:1048E00000237B627B6ADBB2194678680BF0ACFB75
:1048F0007B681B685A697B681B6802F400125A6166
:104900007B681B68184604F0A8F8034603F0804350
:10491000B3F1804F0AD178680BF0BAFB7B681B6853
:104920005A697B681B6802F080425A617B681B6889
:10493000184604F092F8034603F00403042B15D143
:104940007B681B685B68BB61BB6903F00403002BD9
:1049500002D078680BF0AAFB7B681B6859687B68FB
:104960001B68BA690A435A6000E000BF3437BD468D
:1049700090BD80B582B000AF78600B46FB707B685D
:1049800093F8BC33012B01D1022313E07B68012291
:1049900083F8BC237B68FA7883F838207B681B682F
:1049A000FA781146184603F0F0FF7B68002283F87E
:1049B000BC23002318460837BD4680BD80B584B0AF
:1049C00000AF7860084611461A460346FB700B4656
:1049D0003B801346BB700023FB7297F90330002B1A
:1049E0000FDAFB7803F00F021346DB009B1A9B00E3
:1049F00038337A6813440433FB60FB6801225A7031
:104A00000FE0FB7803F00F021346DB009B1A9B00BC
:104A100003F5FC737A6813440433FB60FB680022DF
:104A20005A70FB7803F00F03DAB2FB681A703A8809
:104A3000FB689A60FB68BA78DA70FB685B78002BD9
:104A400004D0FB681B789AB2FB68DA80BB78022B33
:104A500002D1FB6800221A717B6893F8BC33012BEA
:104A600001D102230EE07B68012283F8BC237B681E
:104A70001B68F968184603F05BF97B68002283F82D
:104A8000BC23FB7A18461037BD4680BD80B584B084
:104A900000AF78600B46FB7097F90330002B0FDAFC
:104AA000FB7803F00F021346DB009B1A9B003833A0
:104AB0007A6813440433FB60FB6801225A700FE0EC
:104AC000FB7803F00F021346DB009B1A9B0003F5F3
:104AD000FC737A6813440433FB60FB6800225A704D
:104AE000FB7803F00F03DAB2FB681A707B6893F867
:104AF000BC33012B01D102230EE07B68012283F835
:104B0000BC237B681B68F968184603F099F97B6839
:104B1000002283F8BC23002318461037BD4680BD11
:104B200080B586B000AFF8607A603B600B46FB72E0
:104B3000FB7A03F00F021346DB009B1A9B0003F580
:104B4000FC73FA68134404337B617B697A68DA602A
:104B50007B693A685A617B6900229A617B6900220D
:104B60005A70FB7A03F00F03DAB27B691A70FB68A4
:104B70001B69012B02D17A687B691A61FB7A03F009
:104B80000F03002B09D1FB681868FB681B69DBB2B7
:104B90001A46796903F074FC08E0FB681868FB6842
:104BA0001B69DBB21A46796903F026FA002318461E
:104BB0001837BD4680BD80B586B000AFF8607A601A
:104BC0003B600B46FB72FB7A03F00F021346DB00DF
:104BD0009B1A9B003833FA68134404337B617B696A
:104BE0007A68DA607B693A685A617B6900229A6167
:104BF0007B6901225A70FB7A03F00F03DAB27B69FA
:104C00001A70FB681B69012B02D17A687B691A61F3
:104C1000FB7A03F00F03002B09D1FB681868FB68CF
:104C20001B69DBB21A46796903F02AFC08E0FB68CD
:104C30001868FB681B69DBB21A46796903F0DCF976
:104C4000002318461837BD4680BD80B584B000AF3C
:104C500078600B46FB70FB7803F00F027B685B68A3
:104C60009A4201D9012350E097F90330002B0FDA63
:104C7000FB7803F00F021346DB009B1A9B003833CE
:104C80007A6813440433FB60FB6801225A700DE01C
:104C9000FA781346DB009B1A9B0003F5FC737A68D5
:104CA00013440433FB60FB6800225A70FB68012246
:104CB0009A70FB7803F00F03DAB2FB681A707B6816
:104CC00093F8BC33012B01D102231EE07B68012243
:104CD00083F8BC237B681B68F968184603F081FDE4
:104CE000FB7803F00F03002B0AD17B6818687B6800
:104CF0001B69D9B27B6803F571731A4603F072FF22
:104D00007B68002283F8BC23002318461037BD4679
:104D100080BD80B584B000AF78600B46FB70FB7837
:104D200003F00F027B685B689A4201D9012342E0DD
:104D300097F90330002B0FDAFB7803F00F021346CC
:104D4000DB009B1A9B0038337A6813440433FB6002
:104D5000FB6801225A700FE0FB7803F00F02134644
:104D6000DB009B1A9B0003F5FC737A681344043341
:104D7000FB60FB6800225A70FB6800229A70FB7887
:104D800003F00F03DAB2FB681A707B6893F8BC3348
:104D9000012B01D102230EE07B68012283F8BC23A2
:104DA0007B681B68F968184603F089FD7B68002260
:104DB00083F8BC23002318461037BD4680BD80B55C
:104DC0008AB002AF786039607B681B687B617B6961
:104DD0003B613A681346DB009B1A9B0038337A68C4
:104DE00013440433FB60FB689A69FB685B699A4271
:104DF00001D901236CE0FB685A69FB689B69D31AEF
:104E0000FB61FB689B68FA699A4202D9FB689B6860
:104E1000FB61FB6903339B08BB612BE0FB685A69AC
:104E2000FB689B69D31AFB61FB689B68FA699A422D
:104E300002D9FB689B68FB61FB6903339B08BB617C
:104E4000FB68D9683B68DAB2FB6998B27B681B697A
:104E5000DBB200930346786903F065FCFB68DA680F
:104E6000FB691A44FB68DA60FB689A69FB691A44BB
:104E7000FB689A613B685A013B69134403F5106370
:104E80009B699BB2BA699A4209D8FB689A69FB6828
:104E90005B699A4203D2FB685B69002BBED1FB6859
:104EA0005A69FB689B699A4211D83B6803F00F036B
:104EB000012202FA03F3BB603B6903F500635A6BFE
:104EC000BB68DB43396901F5006113404B63002384
:104ED00018462037BD4680BD80B586B000AF7860EB
:104EE00039607B681B687B617B693B617B693C3314
:104EF00004331B68FB603B685A013B69134403F5AC
:104F000030639B68BB607B681B69012B40F0A0800D
:104F1000BB6803F00803002B15D0FB68724A93426C
:104F200040F2DD80BB6803F40043002B00F0D78023
:104F30003B685A013B69134403F530631A464FF44A
:104F400000439360CBE0BB6803F02003002B09D043
:104F50003B685A013B69134403F530631A4620232A
:104F60009360BCE0BB6803F02803002B40F0B780DF
:104F7000FB685D4A93420FD9BB6803F40043002BE2
:104F80000AD03B685A013B69134403F530631A4663
:104F90004FF400439360A2E079683A681346DB005F
:104FA0009B1A9B000B4403F501731A683B68590177
:104FB0003B690B4403F530631B69C3F31203D11A39
:104FC00078683A681346DB009B1A9B00034403F59C
:104FD0000573196079683A681346DB009B1A9B00D9
:104FE0000B4403F50273196878683A681346DB00CE
:104FF0009B1A9B00034403F501731B6819447868EE
:105000003A681346DB009B1A9B00034403F50273C6
:1050100019603B68002B14D179683A681346DB00AD
:105020009B1A9B000B4403F504731B68002B08D1EB
:105030007B6818687B6803F571731A46012103F0D9
:10504000D1FD3B68DBB2194678680AF067FF46E09D
:10505000FB68264A934224D1BB6803F40043002B2B
:105060000AD03B685A013B69134403F530631A4682
:105070004FF40043936032E0BB6803F02003002B41
:1050800008D03B685A013B69134403F530631A4664
:10509000202393603B68DBB2194678680AF03EFF34
:1050A0001DE03B68002B14D179683A681346DB0099
:1050B0009B1A9B000B4403F504731B68002B08D15B
:1050C0007B6818687B6803F571731A46002103F04A
:1050D00089FD3B68DBB2194678680AF01FFF0023A0
:1050E00018461837BD4680BD0A30544F0A31544F18
:1050F00080B586B000AF786039607B681B687B61E3
:105100007B693B617B693C3304331B68FB603B6814
:105110005A013B69134403F530639B68BB60FB682D
:10512000154A93420ED9BB6803F40043002B09D003
:105130003B685A013B69134403F530631A464FF448
:105140000043936078680AF0D7FEFB680A4A9342EE
:105150000CD97B681B69012B08D17B6818687B68B8
:1051600003F571731A46012103F03CFD0023184634
:105170001837BD4680BD00BF0A30544F80B485B09B
:1051800000AF78600B46FB7013463B807B681B6862
:105190005B6ABB60FB78002B07D13B8819047B68F6
:1051A0001B68BA680A439A6228E07B681B689B6A9E
:1051B0001B0CBA681344BB600023FB730DE07B68D3
:1051C0001A68FB7B40339B0013445B681B0CBA6876
:1051D0001344BB60FB7B0133FB73FA7BFB78013B21
:1051E0009A42ECD33B8818047B681968FB78013B32
:1051F000BA68024340339B000B445A6000231846B0
:105200001437BD465DF8047B704780B483B000AFAF
:1052100078600B467B807B681B687A885A62002323
:1052200018460C37BD465DF8047B704780B483B0E8
:1052300000AF78600B46FB7000BF0C37BD465DF8D1
:10524000047B704780B586B000AF78607B68002B28
:1052500001D101235BE27B681B6803F00103002B93
:1052600075D0A34B9B6803F00C03042B0CD0A04B10
:105270009B6803F00C03082B12D19D4B5B6803F471
:105280008003B3F5800F0BD1994B1B6803F40033F7
:10529000002B5BD07B685B68002B57D1012336E283
:1052A0007B685B68B3F5803F06D1914B1B68904AE1
:1052B00043F4803313601DE07B685B68B3F5A02F77
:1052C0000CD18B4B1B688A4A43F480231360884BB4
:1052D0001B68874A43F4803313600BE0844B1B68E0
:1052E000834A23F480331360814B1B68804A23F484
:1052F000802313607B685B68002B13D0FCF742FAB5
:10530000386108E0FCF73EFA02463B69D31A642B89
:1053100001D90323FBE1764B1B6803F40033002B18
:10532000F0D014E0FCF72EFA386108E0FCF72AFA16
:1053300002463B69D31A642B01D90323E7E16C4B86
:105340001B6803F40033002BF0D100E000BF7B6842
:105350001B6803F00203002B63D0654B9B6803F0CE
:105360000C03002B0BD0624B9B6803F00C03082B43
:105370001CD15F4B5B6803F48003002B16D15C4BA0
:105380001B6803F00203002B05D07B68DB68012B50
:1053900001D00123BBE1564B1B6823F0F8027B6868
:1053A0001B69DB00524913430B603AE07B68DB6802
:1053B000002B20D04F4B01221A60FCF7E3F9386133
:1053C00008E0FCF7DFF902463B69D31A022B01D94A
:1053D00003239CE1464B1B6803F00203002BF0D033
:1053E000434B1B6823F0F8027B681B69DB004049D4
:1053F00013430B6015E03F4B00221A60FCF7C2F923
:10540000386108E0FCF7BEF902463B69D31A022B6B
:1054100001D903237BE1364B1B6803F00203002B09
:10542000F0D17B681B6803F00803002B30D07B6849
:105430005B69002B16D0304B01221A60FCF7A2F9F1
:10544000386108E0FCF79EF902463B69D31A022B4B
:1054500001D903235BE1264B5B6F03F00203002BB2
:10546000F0D015E0244B00221A60FCF78BF938616C
:1054700008E0FCF787F902463B69D31A022B01D9F1
:10548000032344E11A4B5B6F03F00203002BF0D1BE
:105490007B681B6803F00403002B00F0A08000234E
:1054A000FB75134B1B6C03F08053002B0FD10023B3
:1054B000BB600F4B1B6C0E4A43F0805313640C4BC4
:1054C0001B6C03F08053BB60BB680123FB750B4B67
:1054D0001B6803F48073002B21D1084B1B68074A1B
:1054E00043F480731360FCF74DF9386111E000BF9D
:1054F0000038024000004742800E474200700040E2
:10550000FCF740F902463B69D31A022B01D9032369
:10551000FDE0814B1B6803F48073002BF0D07B68A7
:105520009B68012B06D17D4B1B6F7C4A43F0010326
:1055300013671CE07B689B68052B0CD1774B1B6FB6
:10554000764A43F004031367744B1B6F734A43F0AE
:10555000010313670BE0714B1B6F704A23F00103CB
:1055600013676E4B1B6F6D4A23F0040313677B6850
:105570009B68002B15D0FCF705F938610AE0FCF7B1
:1055800001F902463B69D31A41F28832934201D9AC
:105590000323BCE0614B1B6F03F00203002BEED032
:1055A00014E0FCF7EFF838610AE0FCF7EBF802468C
:1055B0003B69D31A41F28832934201D90323A6E012
:1055C000564B1B6F03F00203002BEED1FB7D012B2A
:1055D00005D1524B1B6C514A23F0805313647B68F6
:1055E0009B69002B00F092804C4B9B6803F00C03EE
:1055F000082B5CD07B689B69022B41D1484B002271
:105600001A60FCF7BFF8386108E0FCF7BBF8024607
:105610003B69D31A022B01D9032378E03F4B1B6867
:1056200003F00073002BF0D17B68DA697B681B6A9A
:105630001A437B685B6A9B011A437B689B6A5B0821
:10564000013B1B041A437B68DB6A1B063349134387
:105650004B60334B01221A60FCF794F8386108E084
:10566000FCF790F802463B69D31A022B01D90323B9
:105670004DE02A4B1B6803F00073002BF0D045E08F
:10568000274B00221A60FCF77DF8386108E0FCF730
:1056900079F802463B69D31A022B01D9032336E07D
:1056A0001E4B1B6803F00073002BF0D12EE07B68CB
:1056B0009B69012B01D1012329E0184B5B68FB603A
:1056C000FB6803F480027B68DB699A421CD1FB68AB
:1056D00003F03F027B681B6A9A4215D1FA6847F6CD
:1056E000C07313407A68526A93420DD1FB6803F489
:1056F00040327B689B6A9A4206D1FB6803F0706275
:105700007B68DB6A9A4201D0012300E0002318463F
:105710001837BD4680BD00BF007000400038024011
:105720006000474280B584B000AF786039607B6824
:10573000002B01D10123CCE0684B1B6803F00F0361
:105740003A689A420CD9654B3A68D2B21A70634BE8
:105750001B6803F00F033A689A4201D00123B8E0B6
:105760007B681B6803F00203002B20D07B681B685A
:1057700003F00403002B05D0594B9B68584A43F4AF
:10578000E05393607B681B6803F00803002B05D08F
:10579000534B9B68524A43F460439360504B9B6861
:1057A00023F0F0027B689B684D4913438B607B6854
:1057B0001B6803F00103002B44D07B685B68012B5E
:1057C00007D1474B1B6803F40033002B19D1012389
:1057D0007FE07B685B68022B03D07B685B68032BF0
:1057E00007D13F4B1B6803F00073002B09D1012345
:1057F0006FE03B4B1B6803F00203002B01D1012338
:1058000067E0374B9B6823F003027B685B68344991
:1058100013438B60FBF7B6FFF8600AE0FBF7B2FFBB
:105820000246FB68D31A41F28832934201D903231E
:105830004FE02B4B9B6803F00C027B685B689B007E
:105840009A42EBD1254B1B6803F00F033A689A424A
:105850000CD2224B3A68D2B21A70204B1B6803F06C
:105860000F033A689A4201D0012332E07B681B683B
:1058700003F00403002B08D0194B9B6823F4E0527B
:105880007B68DB68164913438B607B681B6803F0F9
:105890000803002B09D0124B9B6823F460427B68FD
:1058A0001B69DB000E4913438B6000F021F80246B0
:1058B0000B4B9B681B0903F00F030A49CB5C22FAD0
:1058C00003F3094A1360094B1B681846FBF780FD78
:1058D000002318461037BD4680BD00BF003C024083
:1058E00000380240AC150108080000200C00002020
:1058F0002DE9B04384B000AF00237B600023FB6040
:1059000000233B600023BB60674B9B6803F00C03E4
:10591000082B0DD0082B00F2BD80002B02D0042BE9
:1059200003D0B7E0614BBB60B7E0604BBB60B4E055
:105930005D4B5B6803F03F037B605B4B5B6803F48C
:105940008003002B4DD0584B5B689B091A464FF0E3
:10595000000340F2FF104FF0000102EA000803EAE2
:105960000109404649464FF000024FF000034B0149
:1059700043EAD063420110461946B0EB080061EBE0
:1059800009014FF000024FF000038B0143EA9063DE
:105990008201121A63EB01034FF000004FF0000187
:1059A000D90041EA5271D00002460B4612EB0802C0
:1059B00043EB09034FF000004FF00001990241EA68
:1059C0009251900202460B46104619467B681A46D1
:1059D0004FF00003FAF754FC02460B461346FB60F7
:1059E0004AE0314B5B689B091A464FF0000340F2D6
:1059F000FF104FF0000102EA000403EA010520460F
:105A000029464FF000024FF000034B0143EAD063F8
:105A1000420110461946001B61EB05014FF00002E0
:105A20004FF000038B0143EA90638201121A63EB8B
:105A300001034FF000004FF00001D90041EA52711C
:105A4000D00002460B46121945EB03034FF000004D
:105A50004FF00001990241EA9251900202460B4632
:105A6000104619467B681A464FF00003FAF708FC07
:105A700002460B461346FB600B4B5B681B0C03F0A6
:105A8000030301335B003B60FA683B68B2FBF3F34E
:105A9000BB6002E0054BBB6000BFBB681846103717
:105AA000BD46BDE8B08300BF003802400024F400CA
:105AB00080B400AF034B1B681846BD465DF8047BFD
:105AC000704700BF0800002080B500AFFFF7F0FF6F
:105AD0000246054B9B689B0A03F007030349CB5C16
